:100000000C9451000C9479000C9479000C947900B4
:100010000C9479000C9479000C9479000C9479007C
:100020000C9479000C9479000C9479000C9479006C
:100030000C9479000C9479000C94F1060C94A207AE
:100040000C9479000C9479000C9479000C9479004C
:100050000C9479000C9479000C9479000C9479003C
:100060000C9479000C9479000C9479000C9479002C
:100070000C9479000C9479000C9479000C9479001C
:100080000C9479000C9479000C9479000C9479000C
:100090000C941E060C94A8060C9482060C9479000D
:1000A000620811241FBECFEFCDBFDFE3DEBF18E231
:1000B000A0E0B8E2EAE0F6E102C005900D92A430BB
:1000C000B107D9F729E2A4E0B8E201C01D92AB3F25
:1000D000B207E1F710E0C1E5D0E004C02197FE01CE
:1000E0000E94990AC035D107C9F70E9498080C945C
:1000F000AE0A0C940000AF92BF92CF92DF92EF92C3
:10010000FF920F931F93CF93DF936C017B018B01C1
:10011000040F151FEB015E01AE18BF08C017D10711
:1001200059F06991D601ED91FC910190F081E02D9B
:10013000C6010995892B79F7C501DF91CF911F91F0
:100140000F91FF90EF90DF90CF90BF90AF90089508
:10015000FC0154894589252F30E0842F90E0821BD3
:10016000930B541710F0CF96089501970895FC0152
:1001700092898389981761F0A389AE0FBF2FB11DB3
:1001800059968C9193899F5F9F73938B90E008950C
:100190008FEF9FEF0895FC0192898389981731F0C2
:1001A0008389E80FF11D818D90E008958FEF9FEF17
:1001B0000895FC0192892389892F90E0805C9F4FEC
:1001C000821B91098F7399270895CF93DF93EC01D8
:1001D000E881F9810680F781E02D0995EC85FD85A0
:1001E00086818F738683EC85FD8585818F758583F8
:1001F0008B898A8B198ADF91CF910895CF93DF93F2
:10020000FC0194898589C485D585981306C08D81A4
:100210008F7D8D83DF91CF910895A589AE0FBF2F7C
:10022000B11DA75ABF4F2C91858990E001968F731D
:100230009927858B80E48C83A485B58512962C93B1
:10024000948985899813E6CFA485B58515968C91F8
:1002500015978F7D15968C9387898823D9F2808D89
:1002600080931301178AD6CFDC011C96ED91FC9187
:100270000FB607FE03C0258125FD04C0248125FD9E
:100280000C94FE000895EF92FF920F931F93CF936B
:10029000DF93EC0181E0898B9C898D8998131CC0C8
:1002A000AC85BD8514968C91149785FF15C0129668
:1002B0006C93AC85BD8580E414968C93EC85FD85AC
:1002C00085818F7D858381E090E0DF91CF911F91C3
:1002D0000F91FF90EF9008958091110180FF08C069
:1002E00080911301888F8E898093130181E08F8B19
:1002F000F62E0C8910E00F5F1F4F0F731127E02EB1
:100300008D898E1104C0CE010E943401F9CFEC8991
:10031000EC0FFD2FF11DE75AFF4FF0820C8BEC859F
:10032000FD8585818062CECFCF93DF93FC0121894B
:100330002223C9F0EC018091110180FF08C0809157
:100340001301808F86898093130181E0878BEC8570
:10035000FD85858185FD03C0848186FD04C0CE01B5
:100360000E943401F4CFDF91CF910895CF93DF93B2
:1003700090E0FC01E255FA4A20812F3F69F0FC0130
:10038000EC56FA4AE08130E2E39FF0011124FC5F71
:100390006130710521F42183DF91CF910895865852
:1003A0009A4AEC01A881AF3F69F0CF014096A80FAF
:1003B000B92FB11D9FB7F89422838C9188608C93DC
:1003C0009FBFEACFB0E0A0E0F5CFCF92DF92EF92EF
:1003D000FF920F931F93CF93DF93EC016A017B0190
:1003E000022F8989882339F0E881F9810288F3890D
:1003F000E02DCE01099598898091E205892B8093A3
:10040000E2051FB7F89460E070E281EA97E0A70187
:1004100096010E94450A69017A018FEFC81AD80A2D
:10042000E80AF80AF694E794D794C794EC85FD851A
:1004300086818D7F8683EC85FD8586818683198AFA
:10044000A09123110A2E000CBB0BA70196010E945C
:10045000910A20E034E040E050E00E94670AEC8519
:10046000FD85C20ED31EE41EF51EC086D186EC8526
:10047000FD850783EC85FD858681806C8683EC8510
:10048000FD858581806885838E858B3220F462E0CE
:1004900070E00E94B6018F858B32F8F490E0FC0189
:1004A000E255FA4A40814F3FC1F0FC01E05AFA4A56
:1004B000E081EE2329F0E13009F110F0E63080F11F
:1004C000FC01EC56FA4AE081B0E2EB9FF001112406
:1004D000FC5F2081242371F145838F858B3220F4CA
:1004E00061E070E00E94B6011FBFDF91CF911F91C4
:1004F0000F91FF90EF90DF90CF9008956091010AE7
:10050000FC01E658FA4A50815C5F21E030E001C00E
:10051000220F5A95EAF7209526232093010AD0CF7F
:10052000A0E1EA9FF0011124E05AF54F21812F7ECE
:100530002183C6CF86589A4ADC018C91309761F0AE
:100540008F3F51F07096E80FF11D9FB7F8948081AE
:10055000886080839FBFC1CFF0E0E0E0F6CFCF930B
:10056000DF938FB7F8942091392930913A2940913F
:100570003B2950913C29E091BA0A9091B60A90FF2C
:1005800006C02F5F3F4F4F4F5F4FE091BA0A8FBFBA
:10059000A0913729B0913829C0913529D0913629B9
:1005A0000E94860AEC9F9001ED9F300D1124620F8E
:1005B000731F811D911DDF91CF9108958F929F929E
:1005C000AF92BF92CF92DF92EF92FF924B015C010C
:1005D0000E94AF026B017C01A8EEB3E0A50194017B
:1005E0000E94860AC60ED71EE81EF91EC616D7063A
:1005F000E806F90618F40E94AF02F8CF0E94AF0295
:100600006C157D058E059F05C8F3FF90EF90DF9078
:10061000CF90BF90AF909F908F90089580912A299E
:1006200090912929891B990B089581E008950F93D2
:1006300091E090932829109227296093252970939F
:1006400026294093242920932329109222291092AD
:10065000212900932029880F80931F2923E030E06F
:1006600044E050E080912429882341F020931D2903
:1006700030931E2980911F298E7F0BC080912329E2
:10068000882351F040931D2950931E2980911F29E2
:1006900081608093A70808C080912429811104C03B
:1006A00080912329882311F3809127298823E1F35E
:1006B000809127298330B1F280912329882321F06A
:1006C000809121290F91089580912729823031F05E
:1006D000853031F0813031F480E0F4CF81E0F2CF29
:1006E00083E0F0CF84E0EECFE0EAF8E09185906619
:1006F000918722E030E020931D2930931E298093BA
:100700000F2910920E29089581E080930E291092EE
:100710000F2993E09093AA089091AB0891FF10C025
:1007200010921B29E0910C29F0910D2909958093D5
:100730001A2985E090E080931D2990931E29089541
:1007400010921C298093192986E090E0F4CF8F92B3
:100750009F92AF92BF92CF92DF92EF92FF92CF9390
:10076000DF9360342DE0720723E08207910508F4DF
:1007700054C0611525E372072CE08207910508F447
:1007800045C060387F448241910508F046C0C8E703
:10079000D0E020E432E44FE050E0809000289090D8
:1007A0000128A0900228B0900328C501B4010E943E
:1007B000450A69017A018AE0C81AD108E108F108FE
:1007C000C501B40120E432E44FE050E00E94450A44
:1007D000DE010E94860A28EE33E040E050E00E94ED
:1007E000450AC21AD30AE40AF50AF694E794D794A4
:1007F000C794C092A608DF91CF91FF90EF90DF9051
:10080000CF90BF90AF909F908F900895CCE2D1E0B1
:1008100020E83AE146E050E0C0CFC8EED3E020EA5D
:1008200036E841E050E0B9CF60930A2970930B2974
:10083000089560930829709309290895E0910A2981
:10084000F0910B29309741F0109207291092062958
:10085000099580910629089580E00895E09108297E
:10086000F0910929309759F03091292920912A29AE
:10087000321728F01092292980932A290994089583
:100880000895E091292980912A29E81730F4F0E0B1
:10089000EA57F74D808190E008958FEF9FEF08951C
:1008A0009091292980912A292FEF3FEF981748F43A
:1008B000E92FF0E0EA57F74D208130E09F5F9093F9
:1008C0002929C9010895CF92DF92EF92FF920F93E9
:1008D0001F93CF93DF937C018A01EB016B01C40E60
:1008E000D51ECC15DD0551F06991D701ED91FC9134
:1008F0000190F081E02DC7010995F3CFC801DF9188
:10090000CF911F910F91FF90EF90DF90CF900895BE
:100910002091062927FF08C021E030E0FC01228356
:10092000338390E080E0089580910729E82FF0E07C
:10093000EA5FF74D60838F5F8093072980930629D4
:1009400081E090E00895DC01ED91FC91008CF18D47
:10095000E02D61E009940F9380911D2990911E294B
:100960000197A1F480912829811112C0062F20E05F
:100970004091062966E078E2809105280E941703DD
:1009800010920729109206290F91089580E0F8CF60
:1009900081E0F6CF6093052810920729109206296E
:1009A0000895DC01ED91FC91048CF58DE02D21E0A2
:1009B00009940F9386E898E2809310299093112967
:1009C00080911D2990911E290197C9F480912829B1
:1009D000811117C0FA014138510510F0E0E8F0E04C
:1009E000022F862F2E2F40E070E060E00E94170358
:1009F0001092292980932A2990E00F91089580E090
:100A0000F7CF81E0F5CFCB01BA010C94A703E0EA60
:100A1000F8E01382168281E0858314861186109295
:100A20001D2910921E2908951092292910922A2911
:100A3000109207291092062980911D2990911E2954
:100A4000892BD9F482E090E080931D2990931E2990
:100A500010921C2910921B2910920E2910920F2916
:100A60001092042810921929660F6093AC0881EE49
:100A70008093A90881E08093A3088EE194E080939D
:100A80000C2990930D2986E098E280931229909387
:100A900013298EE294E0809317299093182986E811
:100AA00098E2809314299093152980E88093162961
:100AB00008951092292910922A291092072910923C
:100AC000062980911D2990911E29892B41F562E00C
:100AD00070E086E10E94B60162E070E087E10E946A
:100AE000B6018091E3058093E30581E090E0809377
:100AF0001D2990931E2910922129109222291092CB
:100B000028291092272981EC8093A30860EA76E8CF
:100B100081E090E00E94A70381E08093A5080895FA
:100B200090E080E00895EF92FF920F931F93CF9390
:100B3000DF93C62F042F122FE32E682F88ED99E242
:100B40000E94CA046C2F88ED99E20E948804F12E5D
:100B5000C12FDE2D699188ED99E20E9488048C2FC7
:100B60008F198017B8F388ED99E20E94A30491E0F1
:100B7000811190E0892FDF91CF911F910F91FF900C
:100B8000EF9008950F931F93CF93DF9300D000D081
:100B9000CDB7DEB7282F8B014091F9293091FA2982
:100BA000E091F529F091F6298091F7299091F829A3
:100BB0008E1B9F0B642F732F0E94310A842F932F5B
:100BC0000817190708F4C801689FA001699F500D14
:100BD000789F500D11244E0F5F1F19821A824B838C
:100BE0005C83622F660F660F6E5F9E012F5F3F4F23
:100BF00044E08091E4290E9493052496CDBFDEBF96
:100C0000DF91CF911F910F910895CF93DF931F92A2
:100C1000CDB7DEB749839E012F5F3F4F41E00E9471
:100C200093050F90DF91CF910895DC01ED91FC9138
:100C30000088F189E02D23E030E009941F920F92A3
:100C40000FB60F9211242F933F934F935F936F939F
:100C50007F938F939F93AF93BF934091312950918E
:100C60003229609133297091342980912F299091F4
:100C7000302920912D2930912E29420F531F611DBB
:100C8000711D20912B2930912C29820F931F883EB2
:100C900023E0920730F0885E93404F5F5F4F6F4FC5
:100CA0007F4F80932F29909330294093312950937F
:100CB0003229609333297093342980913929909196
:100CC0003A29A0913B29B0913C290196A11DB11D63
:100CD0008093392990933A29A0933B29B0933C29DA
:100CE00081E08093B60ABF91AF919F918F917F91E0
:100CF0006F915F914F913F912F910F900FBE0F9089
:100D00001F9018951F920F920FB60F9211242F93D8
:100D10003F934F935F936F937F938F939F93AF9383
:100D2000BF93EF93FF938DE399E20E94FE00FF9142
:100D3000EF91BF91AF919F918F917F916F915F9153
:100D40004F913F912F910F900FBE0F901F901895CC
:100D50001F920F920FB60F9211242F933F934F9330
:100D60005F936F937F938F939F93AF93BF93EF9313
:100D7000FF93E0914929F0914A29818181FD2FC09B
:100D8000608180914F298F5F8F73909150298917CF
:100D900041F0E0914F29F0E0E35CF64D618F8093E4
:100DA0004F298091D6299091D729009739F0DC01FD
:100DB000ED91FC910190F081E02D0995FF91EF916B
:100DC000BF91AF919F918F917F916F915F914F9163
:100DD0003F912F910F900FBE0F901F90189580811B
:100DE000EDCF1F920F920FB60F9211242F933F93C6
:100DF0004F935F936F937F938F939F93AF93BF9323
:100E0000CF93EF93FF93C091AB08C2FF0AC010923B
:100E10001C2910921B2910921A2984E00E94740345
:100E200014C0C6FF2FC080911929813051F48091E0
:100E30001C29E0911729F091182990E0099510924A
:100E40001929C0FF14C00E948403FF91EF91CF9134
:100E5000BF91AF919F918F917F916F915F914F91D2
:100E60003F912F910F900FBE0F901F90189580E427
:100E70008093AB0881E00E9474038091AB0885FFEA
:100E8000E4CFE1CFC7FF5CC0C3FF08C010921C29AC
:100E900010921B2910921A2983E0C0CF8091A908D3
:100EA00080668093A9088091AB0881FF2CC0809157
:100EB0001B29882349F08091AB0884FF05C082E09C
:100EC0008093AA0881E0AACF90911B2980911A29CA
:100ED0009817A8F4E0911B29809112299091132969
:100EE000E80FF92FF11D80818093AD0880911B29B7
:100EF0008F5F80931B2983E08093AA08A6CF82E0AE
:100F00008093AA088BCF90911C298091162998175D
:100F100090F48091AD08E0911C2920911429309122
:100F20001529E20FF32FF11D808380911C298F5F1B
:100F300080931C29E0CF86E08093AA0882E06ECFE0
:100F400085E06CCF1F920F920FB60F9211242F9352
:100F50003F938F939F93EF93FF938091A508982FD2
:100F60009C70E1F08091A50894E082FF93E090935B
:100F700027298093A50881E090E080931D29909314
:100F80001E2910922829FF91EF919F918F913F91F7
:100F90002F910F900FBE0F901F90189586FF4EC097
:100FA00020912429909123298091A50884FF15C0C0
:100FB00080912029882379F083E08093A40885E03C
:100FC000809327291092282981E090E080931D29A1
:100FD00090931E29D8CF81E0F0CF809122298217EB
:100FE00090F4E09122298091252990912629E80FFB
:100FF000F92FF11D80818093A808809122298F5FAD
:1010000080932229C0CF80912129891760F484E040
:1010100090E080931D2990931E2980911F29816063
:101020008093A708B0CF80912029882329F083E0FE
:101030008093A40881E0C4CF81E0FACF87FF40C04D
:1010400090912129809123299817D8F48091A8089C
:10105000E09121292091102930911129E20FF32FDD
:10106000F11D8083809121298F5F809321299091A8
:101070002329809121298917D8F482E08093A4083C
:1010800082CF80912029882389F087E08093A4086B
:1010900082E0809327291092282981E090E08093B4
:1010A0001D2990931E29109223296DCF85E0EECF44
:1010B00080912029882311F087E0BACF85E0B8CF4E
:1010C00086E07ECFEDE3F9E21282138288EE93E0B0
:1010D000A0E0B0E084839583A683B7832CEC35E54C
:1010E0002083318320E638E02487358728E126876E
:1010F00029E1278720E4208B128A138A148A158A13
:1011000026E2268B178A108E1092D6291092D729A4
:10111000E8EDF9E21282138284839583A683B78374
:1011200086EE95E5808391838FE78093E429089587
:1011300088ED90E084BF9093610080E094E2A4EF9A
:10114000B0E08093002890930128A0930228B093E8
:101150000328809102068660809302068091000633
:10116000816080930006809102068F7C8093020646
:101170008091A0008F788093A0008091020680610A
:10118000809302061092E20581E08093E40583E0FB
:101190008093010A8FEF90E08093260A9093270AAC
:1011A00080E890E08093380A9093390A80933A0A55
:1011B00090933B0A80933C0A90933D0A8BE0809386
:1011C000000A8091E50581608093E5058091E50541
:1011D00082608093E505E0E8FAE037E02FEF90E8E1
:1011E00085E031832487958780837096E03C4AE0D0
:1011F000F407B9F780E094E0809337299093382979
:1012000080913729909138292FEF30E0B9010E9461
:10121000310A60933529709336298091372990914E
:101220003829E8EEF3E0BF010E94310A60932D29CE
:1012300070932E298091372990913829BF010E94FF
:10124000310A80932B2990932C292093BC0A309348
:10125000BD0A8091B50A81608093B50A84E08093CD
:10126000B00A8091B00A81608093B00A789488EDCA
:1012700099E20E94590540E855E260E070E08DE394
:1012800099E20E9415068FE78093E42940E860E028
:101290000E9405066AE070E080E090E00E94DE02B5
:1012A00040E160E08091E4290E94050662E070E080
:1012B00080E090E00E94DE0240E560E08091E42959
:1012C0000E94050640E060E08091E4290E94050646
:1012D00062E070E080E090E00E94DE028AE790E049
:1012E0008093F5299093F62986E692E08093F7297A
:1012F0009093F82984EB90E08093F9299093FA2950
:10130000C091E4298FB7F894C0903129D090322948
:10131000E0903329F09034298FBF6C2F88ED99E24B
:101320000E94CA0460E088ED99E20E94880488ED7A
:1013300099E20E94A3046C2F88ED99E20E94CA04EE
:1013400021E041E050E06C2F88ED99E20E94D90441
:10135000C0E090912A2980912929981709F12FB787
:10136000F8948091312990913229A0913329B0913C
:1013700034292FBF8C199D09AE09BF09883E9340BF
:10138000A105B10568F488ED99E20E945004EC2FA4
:101390000C2E000CFF0BEB51F64D8083CF5FD9CFA5
:1013A00088ED99E20E94A3048FB7F8944091312907
:1013B0005091322960913329709134298FBF409127
:1013C000E5294F76406160E08091E4290E9405069E
:1013D00062E070E080E090E00E94DE0249E76EEF9C
:1013E0008091E4290E9405064091E52960E0809102
:1013F000E4290E94050662E070E080E090E00E942F
:10140000DE024091E529406A60E08091E4290E9473
:10141000050662E070E080E090E00E94DE0200E0FD
:1014200010E0C1E070E060E08C2F0E94C20568EE21
:1014300073E080E090E00E94DE026AE570E08C2FAD
:101440000E94C20568EE73E080E090E00E94DE0238
:10145000CF5FC93039F70115110519F30E9400005B
:10146000E0CFAA1BBB1B51E107C0AA1FBB1FA617D9
:10147000B70710F0A61BB70B881F991F5A95A9F73D
:1014800080959095BC01CD010895A1E21A2EAA1B6A
:10149000BB1BFD010DC0AA1FBB1FEE1FFF1FA21724
:1014A000B307E407F50720F0A21BB30BE40BF50B21
:1014B000661F771F881F991F1A9469F760957095AA
:1014C000809590959B01AC01BD01CF010895052E3B
:1014D00097FB1EF400940E947E0A57FD07D00E94DD
:1014E000450A07FC03D04EF40C947E0A50954095B3
:1014F000309521953F4F4F4F5F4F089590958095C0
:10150000709561957F4F8F4F9F4F08950E949F0A5E
:10151000A59F900DB49F900DA49F800D911D112447
:101520000895B7FF0C94860A0E94860A821B930BCB
:101530000895EE0FFF1F0590F491E02D0994A29FEE
:10154000B001B39FC001A39F700D811D1124911D97
:10155000B29F700D811D1124911D0895F894FFCF45
:101560000000000300010200000101000000000073
:101570000000000000000000000005040005060255
:10158000040103000100010203020100020304053B
:101590000203050402020005020105000401010422
:1015A00004040303030305050303000001012010E5
:1015B0000120400410020801020102040804020193
:1015C00004081020040820100000000043017B00E4
:1015D000A8009401D900B700CB001506E501E5008D
:1015E00015030000000088046304900540040E0306
:1015F000500441045905140507050305CA04AB044A
:0A160000A304D904D1041904140452
:04160A000024F400C4
:00000001FF
